:020000040000FA
:060000000A128A110C280F
:10000800FE00030EF1000A08F2000A128A11832882
:100018000A128A110F2883010A128A115D280330F7
:1000280083160317880089018316031305148514A2
:100038008312031385018701831603130F178F1685
:100048000F160F148B170B170C17831203130C13AF
:100058001F139F171F14C3309F051030F300F30BB5
:1000680033280000831603139F131F129F1287144F
:100078000715FA3092003F308312031397051708CB
:10008800F0390C3897001D08F0390C389D000F30F6
:100098009500CF3097058C100330920412158C1CF4
:1000A8005628572853288C108316031387100711D6
:1000B80008000A128A1113200A128A1183120313E4
:1000C8009F186728682862281F0CF400740C0F39E1
:1000D800013A031D702871287428C3309F057828B9
:1000E8001F08C33904389F002130F400F40B7A2824
:1000F800831203139F1462280A128A110C28831290
:1001080003130C1F88288928A0281F0CF000700CE6
:100118000F39003A031D9128922899281E08F000EB
:100128000310700C7C3E9B009F281E08F0000310F3
:10013800700C7C3E95000C1372088A00710E8300C7
:06014800FE0E7E0E090010
:04400E00D420FF3F7C
:00000001FF
