:020000040000FA
:060000000A128A110C280F
:10000800FE00030EF1000A08F2000A128A111528F0
:100018000A128A110F28F801F90183010A128A11BC
:100028001A29831203130C1F1A281B282B281F0CAC
:10003800F000700C0F39003A031D232824282A28C1
:100048001E0886001E08F0007008F8000C138C1DAE
:100058002E282F2885281412141B332834283828D2
:10006800941F372838283F281308F0007008F90033
:1000780014139413141683160313941A442845284A
:100088006228141948284928622883120313130880
:10009800F0007008F9008C11141683160313141C51
:1000A800562857285128831203131308F0007008A4
:1000B800F8005330F000F00B5F288228941A652866
:1000C80066288228141D69286A2882288312031347
:1000D8001308F0007008F900831603131410780849
:1000E80083120313930014165330F000F00B7A2890
:1000F800831603131418812882287C28831203137B
:100108008C1172088A00710E8300FE0E7E0E0900A3
:10011800F500DA28C330831203139F052130F3005A
:10012800F30B9428831203131F139F131F148316B2
:1001380003139F139F121F12F028C3308312031357
:100148009F052130F300F30BA728831203131F1711
:100158009F131F14831603139F139F121F12F02857
:10016800C330831203139F052130F300F30BBA2821
:10017800831203131F139F171F14831603139F1350
:100188009F121F12F028C330831203139F052130DA
:10019800F300F30BCD28831203131F179F171F14A7
:1001A800831603139F139F121F12F0287508F3007C
:1001B800F4017408003A0319E228F0287308003A99
:1001C80003198E28013A0319A128033A0319B42800
:1001D800013A0319C728F0280800013083160317CD
:1001E80088008901831603130514860183120313FB
:1001F80085018601870188018901831603130F177A
:100208008F160F160F140C17831203130C138B176A
:100218000B1702300A128A118C200A128A115030E8
:100228000A128A1135210A128A1108000A128A1143
:10023800F1200A128A11831203139F1824292529F1
:100248001F298230F700DD30F600F60B2929F70B5D
:1002580029292E29831203139F141F290A128A1190
:100268000C28F300730883160313930036308312A7
:100278000313940080308316031394000130910017
:10028800871507168B170B17831203138C11831608
:0602980003138C150800A1
:04400E00D420FF3F7C
:00000001FF
